{
  "transactions": [
    {
      "hash": "0x77013e01529797993032b837c280e6477247f0c4f77c3ba938db98ca7066c6c2",
      "transactionType": "CALL",
      "contractName": null,
      "contractAddress": "0x9ddfaca8183c41ad55329bdeed9f6a8d53168b1b",
      "function": "addConsumer(uint256,address)",
      "arguments": [
        "22556376891597629229536621055545287048965084039999932745646553582846786916532",
        "0x7655e291D412220Bb143096cce3983C5BcC1D1e4"
      ],
      "transaction": {
        "from": "0xb574cd981dcbd14f94f5e3bdae35c38f3cab08db",
        "to": "0x9ddfaca8183c41ad55329bdeed9f6a8d53168b1b",
        "gas": "0x21fc9",
        "value": "0x0",
        "input": "0xbec4c08c31de74f7090e5da7510a975430fc48fbfb1ba449b89933b0ab3a1eeb0a73d0b40000000000000000000000007655e291d412220bb143096cce3983c5bcc1d1e4",
        "nonce": "0x1b",
        "chainId": "0xaa36a7"
      },
      "additionalContracts": [],
      "isFixedGasLimit": false
    }
  ],
  "receipts": [
    {
      "status": "0x1",
      "cumulativeGasUsed": "0x13d5360",
      "logs": [
        {
          "address": "0x9ddfaca8183c41ad55329bdeed9f6a8d53168b1b",
          "topics": [
            "0x1e980d04aa7648e205713e5e8ea3808672ac163d10936d36f91b2c88ac1575e1",
            "0x31de74f7090e5da7510a975430fc48fbfb1ba449b89933b0ab3a1eeb0a73d0b4"
          ],
          "data": "0x0000000000000000000000007655e291d412220bb143096cce3983c5bcc1d1e4",
          "blockHash": "0x680c9d7cd624ca7149f385090a08bc5d6d5cdc0e3a25522c5c2f85c6f9716a85",
          "blockNumber": "0x7f2619",
          "blockTimestamp": "0x6826083c",
          "transactionHash": "0x77013e01529797993032b837c280e6477247f0c4f77c3ba938db98ca7066c6c2",
          "transactionIndex": "0xb4",
          "logIndex": "0x1be",
          "removed": false
        }
      ],
      "logsBloom": "0x0000000000000000000000000000008000000000002000000000000000000000000000000000000000000000000000000000000000000000000000000000000000000000000000000000000000000000000000000000000100000000000000000c000000000000000000000000000000000000000000000000002000000000000000000000000000000000010000000000000000000000000000000000000000000000000000000000000000000000000000000000000020000000000000000000000000000000000400000000000000000000000000000000000000000000000000000000000000000000000000000000000000000000000000000000000000",
      "type": "0x2",
      "transactionHash": "0x77013e01529797993032b837c280e6477247f0c4f77c3ba938db98ca7066c6c2",
      "transactionIndex": "0xb4",
      "blockHash": "0x680c9d7cd624ca7149f385090a08bc5d6d5cdc0e3a25522c5c2f85c6f9716a85",
      "blockNumber": "0x7f2619",
      "gasUsed": "0x173d2",
      "effectiveGasPrice": "0x30660d7e9",
      "from": "0xb574cd981dcbd14f94f5e3bdae35c38f3cab08db",
      "to": "0x9ddfaca8183c41ad55329bdeed9f6a8d53168b1b",
      "contractAddress": null
    }
  ],
  "libraries": [],
  "pending": [],
  "returns": {},
  "timestamp": 1747322943,
  "chain": 11155111,
  "commit": "0bd9eeb"
}