{
  "transactions": [
    {
      "hash": "0x591212f0c2ea59859acc35de43b318920f8d7db7d00f20f917c00374caf62476",
      "transactionType": "CALL",
      "contractName": null,
      "contractAddress": "0x779877a7b0d9e8603169ddbd7836e478b4624789",
      "function": "transferAndCall(address,uint256,bytes)",
      "arguments": [
        "0x9DdfaCa8183c41ad55329BdeeD9F6A8d53168B1B",
        "6000000000000000000",
        "0x31de74f7090e5da7510a975430fc48fbfb1ba449b89933b0ab3a1eeb0a73d0b4"
      ],
      "transaction": {
        "from": "0xb574cd981dcbd14f94f5e3bdae35c38f3cab08db",
        "to": "0x779877a7b0d9e8603169ddbd7836e478b4624789",
        "gas": "0x1c1ff",
        "value": "0x0",
        "input": "0x4000aea00000000000000000000000009ddfaca8183c41ad55329bdeed9f6a8d53168b1b00000000000000000000000000000000000000000000000053444835ec5800000000000000000000000000000000000000000000000000000000000000000060000000000000000000000000000000000000000000000000000000000000002031de74f7090e5da7510a975430fc48fbfb1ba449b89933b0ab3a1eeb0a73d0b4",
        "nonce": "0x1a",
        "chainId": "0xaa36a7"
      },
      "additionalContracts": [],
      "isFixedGasLimit": false
    }
  ],
  "receipts": [
    {
      "status": "0x1",
      "cumulativeGasUsed": "0x121d5c7",
      "logs": [
        {
          "address": "0x779877a7b0d9e8603169ddbd7836e478b4624789",
          "topics": [
            "0xddf252ad1be2c89b69c2b068fc378daa952ba7f163c4a11628f55a4df523b3ef",
            "0x000000000000000000000000b574cd981dcbd14f94f5e3bdae35c38f3cab08db",
            "0x0000000000000000000000009ddfaca8183c41ad55329bdeed9f6a8d53168b1b"
          ],
          "data": "0x00000000000000000000000000000000000000000000000053444835ec580000",
          "blockHash": "0x6816c884786fe27159fb55ba3ff7776becc93f51d866525e0157bbc201548ea5",
          "blockNumber": "0x7f1f00",
          "blockTimestamp": "0x6825b2ec",
          "transactionHash": "0x591212f0c2ea59859acc35de43b318920f8d7db7d00f20f917c00374caf62476",
          "transactionIndex": "0xae",
          "logIndex": "0x151",
          "removed": false
        },
        {
          "address": "0x779877a7b0d9e8603169ddbd7836e478b4624789",
          "topics": [
            "0xe19260aff97b920c7df27010903aeb9c8d2be5d310a2c67824cf3f15396e4c16",
            "0x000000000000000000000000b574cd981dcbd14f94f5e3bdae35c38f3cab08db",
            "0x0000000000000000000000009ddfaca8183c41ad55329bdeed9f6a8d53168b1b"
          ],
          "data": "0x00000000000000000000000000000000000000000000000053444835ec5800000000000000000000000000000000000000000000000000000000000000000040000000000000000000000000000000000000000000000000000000000000002031de74f7090e5da7510a975430fc48fbfb1ba449b89933b0ab3a1eeb0a73d0b4",
          "blockHash": "0x6816c884786fe27159fb55ba3ff7776becc93f51d866525e0157bbc201548ea5",
          "blockNumber": "0x7f1f00",
          "blockTimestamp": "0x6825b2ec",
          "transactionHash": "0x591212f0c2ea59859acc35de43b318920f8d7db7d00f20f917c00374caf62476",
          "transactionIndex": "0xae",
          "logIndex": "0x152",
          "removed": false
        },
        {
          "address": "0x9ddfaca8183c41ad55329bdeed9f6a8d53168b1b",
          "topics": [
            "0x1ced9348ff549fceab2ac57cd3a9de38edaaab274b725ee82c23e8fc8c4eec7a",
            "0x31de74f7090e5da7510a975430fc48fbfb1ba449b89933b0ab3a1eeb0a73d0b4"
          ],
          "data": "0x000000000000000000000000000000000000000000000000000000000000000000000000000000000000000000000000000000000000000053444835ec580000",
          "blockHash": "0x6816c884786fe27159fb55ba3ff7776becc93f51d866525e0157bbc201548ea5",
          "blockNumber": "0x7f1f00",
          "blockTimestamp": "0x6825b2ec",
          "transactionHash": "0x591212f0c2ea59859acc35de43b318920f8d7db7d00f20f917c00374caf62476",
          "transactionIndex": "0xae",
          "logIndex": "0x153",
          "removed": false
        }
      ],
      "logsBloom": "0x0000000400000000000000000000000000000000002400000000000002000000000000000000000000000000000000000000000000000000000000000000000000000000000000000000000800000000000000000000000000002000002000000c000000000000000000000000000000000000000000000000000010000040000000000000000000000000010000800000000020000000000000000080000000000000000000000000000000010000000000000000000020000004000000000000000002000000000400000000000000000000000000000100000000000000000010000000000000800000002000000000000000000000000000000000000000",
      "type": "0x2",
      "transactionHash": "0x591212f0c2ea59859acc35de43b318920f8d7db7d00f20f917c00374caf62476",
      "transactionIndex": "0xae",
      "blockHash": "0x6816c884786fe27159fb55ba3ff7776becc93f51d866525e0157bbc201548ea5",
      "blockNumber": "0x7f1f00",
      "gasUsed": "0x133b1",
      "effectiveGasPrice": "0xfa00f78b",
      "from": "0xb574cd981dcbd14f94f5e3bdae35c38f3cab08db",
      "to": "0x779877a7b0d9e8603169ddbd7836e478b4624789",
      "contractAddress": null
    }
  ],
  "libraries": [],
  "pending": [],
  "returns": {},
  "timestamp": 1747301102,
  "chain": 11155111,
  "commit": "0bd9eeb"
}